{
  "contractName": "Whitelist",
  "abi": [
    {
      "inputs": [],
      "name": "merkleRoot",
      "outputs": [
        {
          "internalType": "bytes32",
          "name": "",
          "type": "bytes32"
        }
      ],
      "stateMutability": "view",
      "type": "function",
      "constant": true
    },
    {
      "inputs": [
        {
          "internalType": "bytes32[]",
          "name": "_hexProof",
          "type": "bytes32[]"
        }
      ],
      "name": "checkWhitelist",
      "outputs": [
        {
          "internalType": "bool",
          "name": "",
          "type": "bool"
        }
      ],
      "stateMutability": "view",
      "type": "function",
      "constant": true
    }
  ],
  "bytecode": "0x60806040527fb0d63c211bd098f173092331334aa442a0e7cae931a869fd9795ba393e29bd4760001b60005534801561003757600080fd5b50610514806100476000396000f3fe608060405234801561001057600080fd5b50600436106100365760003560e01c80632eb4a7ab1461003b578063b8dde11214610059575b600080fd5b610043610089565b604051610050919061020f565b60405180910390f35b610073600480360381019061006e9190610299565b61008f565b6040516100809190610301565b60405180910390f35b60005481565b600080336040516020016100a39190610396565b604051602081830303815290604052805190602001209050610109848480806020026020016040519081016040528093929190818152602001838360200280828437600081840152601f19601f8201169050808301925050505050505060005483610153565b610148576040517f08c379a000000000000000000000000000000000000000000000000000000000815260040161013f9061040e565b60405180910390fd5b600191505092915050565b600082610160858461016a565b1490509392505050565b60008082905060005b84518110156101d45760008582815181106101915761019061042e565b5b602002602001015190508083116101b3576101ac83826101df565b92506101c0565b6101bd81846101df565b92505b5080806101cc90610496565b915050610173565b508091505092915050565b600082600052816020526040600020905092915050565b6000819050919050565b610209816101f6565b82525050565b60006020820190506102246000830184610200565b92915050565b600080fd5b600080fd5b600080fd5b600080fd5b600080fd5b60008083601f84011261025957610258610234565b5b8235905067ffffffffffffffff81111561027657610275610239565b5b6020830191508360208202830111156102925761029161023e565b5b9250929050565b600080602083850312156102b0576102af61022a565b5b600083013567ffffffffffffffff8111156102ce576102cd61022f565b5b6102da85828601610243565b92509250509250929050565b60008115159050919050565b6102fb816102e6565b82525050565b600060208201905061031660008301846102f2565b92915050565b600073ffffffffffffffffffffffffffffffffffffffff82169050919050565b60006103478261031c565b9050919050565b60008160601b9050919050565b60006103668261034e565b9050919050565b60006103788261035b565b9050919050565b61039061038b8261033c565b61036d565b82525050565b60006103a2828461037f565b60148201915081905092915050565b600082825260208201905092915050565b7f4e6f742077686974656c69737465640000000000000000000000000000000000600082015250565b60006103f8600f836103b1565b9150610403826103c2565b602082019050919050565b60006020820190508181036000830152610427816103eb565b9050919050565b7f4e487b7100000000000000000000000000000000000000000000000000000000600052603260045260246000fd5b7f4e487b7100000000000000000000000000000000000000000000000000000000600052601160045260246000fd5b6000819050919050565b60006104a18261048c565b91507fffffffffffffffffffffffffffffffffffffffffffffffffffffffffffffffff82036104d3576104d261045d565b5b60018201905091905056fea264697066735822122064c7ebd47f66a348149ff6f6b8249e6e1689349f177498ad6f82eb06782fe2f664736f6c634300080d0033",
  "immutableReferences": {},
  "source": "//SPDX-License-Identifier: UNLICENSED\r\npragma solidity >=0.8.0;\r\n\r\nimport \"@openzeppelin/contracts/utils/cryptography/MerkleProof.sol\";\r\n\r\ncontract Whitelist {\r\n    bytes32 public merkleRoot =\r\n        0xb0d63c211bd098f173092331334aa442a0e7cae931a869fd9795ba393e29bd47;\r\n\r\n    function checkWhitelist(bytes32[] calldata _hexProof)\r\n        public\r\n        view\r\n        returns (bool)\r\n    {\r\n        bytes32 leaf = keccak256(abi.encodePacked(msg.sender));\r\n        require(\r\n            MerkleProof.verify(_hexProof, merkleRoot, leaf),\r\n            \"Not whitelisted\"\r\n        );\r\n        return true;\r\n    }\r\n}\r\n",
  "sourcePath": "D:\\merkle-tree-whitelist\\contracts\\whitelist.sol",
  "compiler": {
    "name": "solc",
    "version": "0.8.13+commit.abaa5c0e.Emscripten.clang"
  },
  "schemaVersion": "3.4.6",
  "updatedAt": "2022-04-19T15:13:11.706Z",
  "networkType": "ethereum",
  "devdoc": {
    "kind": "dev",
    "methods": {},
    "version": 1
  },
  "userdoc": {
    "kind": "user",
    "methods": {},
    "version": 1
  }
}